:020000040000FA
:0400000080311C2807
:100008007E1480310B1F09280A281A284E01991CD2
:100018000E280F2814288F1C1228132814281A2891
:10002800191C172818281A280F081A287E100900E2
:1000380080311E2865308400003085000A308E31FA
:10004800C4268031A03084000030850034308E31E1
:10005800C426803120308400013085003E308E3146
:10006800C42680317E10400182312C2A4001A10033
:100078000330FB007B08F00021088F313F278031D7
:10008800213E8600013087000108FC007C08400101
:10009800A2000730F1000230F200F301F30A22084F
:1000A8008431312480310830F1000230F200F3014C
:1000B800F30A400122088431312480319630F1005E
:1000C8000030F200F30140012208843131248031EC
:1000D8009730F1000030F200FD30FB007B08F300A0
:1000E80040012208843131248031E330F1000030AE
:1000F800F200F30140012208843131248031E430D8
:10010800F1000030F2000430FB007B08F3004001EE
:100118002208843131248031E530F1000030F200CA
:100128000230FB007B08F3004001220884313124AF
:100138008031E630F1000030F200F301F30A4001AB
:100148002208843131248031E730F1000030F20098
:100158000330FB007B08F30040012208843131247E
:100168008031F530F1000030F2000230FB007B08EE
:10017800F30040012208843131248031D930F10064
:100188000030F2000530FB007B08F3004001220834
:10019800843131248031DB30F1000030F200CE3080
:1001A800FB007B08F30040012208843131248031B0
:1001B800DC30F1000030F2000330FB007B08F30074
:1001C80040012208843131248031DD30F1000030D3
:1001D800F200F830FB007B08F3004001220884316C
:1001E800312480319F30F1000030F200F3014001EA
:1001F8002208843131248031A330F1000030F2002C
:100208003C30FB007B08F300400122088431312494
:100218008031B730F1000030F200F30140012208CC
:10022800843131248031BB30F1000030F2003C30A1
:10023800FB007B08F300400122088431312480311F
:10024800B230F1000030F2000930FB007B08F30007
:1002580040012208843131248031CA30F100003055
:10026800F2000930FB007B08F300400122088431CA
:10027800312480319830F1000130F200F301F30AA3
:1002880040012208843131248031B030F10001303E
:10029800F2001730FB007B08F3004001220884318C
:1002A80031248031AD30F1000130F200F30140011A
:1002B8002208843131248031FF30F1000030F2000F
:1002C8000530FB007B08F30040012208843131240B
:1002D80080310030F1000130F2000530FB007B086E
:1002E800F300400122088431312480319930F10033
:1002F8000130F2000530FB007B08F30040012208C2
:10030800843131248031A630F1000130F2001B30F5
:10031800FB007B08F300400122088431312480313E
:10032800AC30F1000130F2003E30FB007B08F300F6
:1003380040012208843131248031A730F100013096
:10034800F2001F30FB007B08F300400122088431D3
:10035800312480313030F1000030F200F3014001E7
:1003680022088431312480311130F1000030F2004C
:100378001030FB007B08F30040012208843131244F
:1003880080310A30F1000130F2003030FB007B0888
:10039800F300400122088431312480313F30F100DC
:1003A8000030F2004630FB007B08F30040012208D1
:1003B8008431312480313130F1000030F200FF30D7
:1003C800FB007B08F300400122088431312480318E
:1003D8004030F1000030F2006330FB007B08F3008E
:1003E800400122088431312480312E30F100003060
:1003F800F200F301F30A40012208843131248031EC
:100408001B30F1000030F2000930FB007B08F300DC
:10041800400122088431312480313E30F10000301F
:10042800F2003130FB007B08F300400122088431E0
:10043800312480311430F1000030F2002430FB0008
:100448007B08F30040012208843131248031080000
:100458008F311D2782318B170B1704304001CC00D8
:100468004C084101DA008530B4000E30B500883000
:10047800B6000E30B7008B30B8000E30B9008230AD
:10048800BA000E30BB007930A0000E30A1007C30DD
:10049800A2000E30A3007F30A4000E30A5007630F5
:1004A800A6000E30A7008631622682314001CC00BA
:1004B8004C08EF00E201692A620880313A20823153
:1004C80001304001CC004C08E2076F086202031CAF
:1004D8006E2A6F2A602AE4014E30860000308700B9
:1004E8000A30CC0000301E00CC0B772A8E319626BD
:1004F8008231003A0319812A822A892A8F310D27ED
:1005080082314001CC004C08E400613040016406AF
:10051800031D8F2A902AFE2A4E30CC004C08FB007F
:100528005830CD004D08FC006F088431F524823125
:100538004001E301F72A6308583E86008701010855
:10054800031DA72AA82ABB2A0530C4009030C5007D
:1005580063084E3E860087010108CC00CD014C0897
:10056800C6004D08C7008F312D278231F22A630853
:10057800583E8600870106300106031DC42AC52A95
:10058800D12A0530C4009030C500FD30C6000030C7
:10059800C7008F312D278231F22A6308583E860022
:1005A800870107300106031DDA2ADB2AE72A05300E
:1005B800C4009030C500FE30C6000030C7008F313F
:1005C8002D278231F22A0530C4009030C500FF3053
:1005D800C6000030C7008F312D278231013040011D
:1005E800CC004C08E3076F086302031CFC2AFD2AB1
:1005F8009F2A322B62306406031D032B042B152B14
:100608008E31FE268231003A03190B2B0C2B042B5A
:1006180000304001C4009030C5008F312D27823151
:10062800322B63306406031D1A2B1B2B322B8E31A1
:10063800FE268231003A0319222B232B1B2B05306F
:100648004001C4009030C5006F08CC00CD014C08B3
:10065800C6004D08C7008F312D2782314001E401C3
:100668007A2A80311C28F900F8017308860087016E
:1006780081017208F4007408F5007108F400740828
:10068800F6008E31F0268331003A03194C2B4D2B9E
:10069800452B8530890B4E2B00008E316D2683311A
:1006A8008E31B82683318E31642683318530890BAB
:1006B8005B2B00007935F4007408FA007A088E3153
:1006C8009B2683318E318E268331003A031D6D2B94
:1006D8006E2B662B8A2B0130F4007408F807323031
:1006E8007806031D782B792B8A2B730886008701DF
:1006F8008101810A8E31732683318530890B822BE3
:1007080000008E31672683310030302C8E31B226BE
:100718008331003A031D912B922B6F2B8E31B82613
:1007280083318E31642683318530890B992B000003
:1007380075088E319B2683318E318E268331003A9F
:10074800031DA72BA82BA02B8E31B2268331003A8C
:10075800031DAF2BB02BA82B8E31B82683318E31D9
:10076800642683318530890BB72B000076088E31DB
:100778009B2683318E318E268331003A031DC52B8B
:10078800C62BBE2B8E31B2268331003A031DCD2BEA
:10079800CE2BC62B8E31B82683318E316426833119
:1007A8008E31732683318530890BD82B00008E312A
:1007B8006D2683318E31B82683318E31642683319C
:1007C8008530890BE52B00000314790DF4007408BB
:1007D800FA007A088E319B2683318E31B826833110
:1007E8008E31642683318530890BF82B00008E31D9
:1007F800702683318E318E268331003A0319052CF9
:10080800062CFE2B8E31B82683318E316426833137
:100818008E316A268331F4007408F70043010F1003
:100828008E31922683318E31B82683318E316426FB
:1008380083318530890B1E2C00008E31732683315D
:100848008530890B252C00008E3167268331853051
:10085800890B2C2C000077080800F600FA017208B2
:10086800F4007408F7007108F4007408F8008E3179
:10087800F0268431003A0319422C432C3B2C853056
:10088800890B442C00008E316D2684318E31B826B8
:1008980084318E31642684318530890B512C0000D7
:1008A8007635F4007408F90079088E319B26843176
:1008B8008E318E268431003A031D632C642C5C2C07
:1008C8007A2C0130F4007408FA0732307A06031DD6
:1008D8006E2C6F2C7A2C8E31732684318530890BDF
:1008E800732C00008E3167268431F42C8E31B226A9
:1008F8008431003A031D812C822C652C8E31B82658
:1009080084318E31642684318530890B892C00002E
:1009180077088E319B2684318E318E268431003AB9
:10092800031D972C982C902C8E31B2268431003AD6
:10093800031D9F2CA02C982C8E31B82684318E3123
:10094800642684318530890BA72C000078088E3105
:100958009B2684318E318E268431003A031DB52CB6
:10096800B62CAE2C8E31B2268431003A031DBD2C34
:10097800BE2CB62C8E31B82684318E316426843153
:100988008530890BC52C000073088E319B26843175
:100998008E318E268431003A031DD32CD42CCC2CD6
:1009A8008E31B2268431003A031DDB2CDC2CD42C8A
:1009B8008E31B82684318E31642684318530890B96
:1009C800E32C00008E31732684318530890BEA2CA4
:1009D80000008E31672684318530890BF12C0000A8
:1009E80008004001A500A701A9012E2D0330A00091
:1009F8002008F00029088F313F278431213E8600E6
:100A08000130870001084001A1002108A8004D30ED
:100A1800F1000030F2002730A0002008F300280879
:100A28008331372384314001A1002108A600261C08
:100A38001E2D1F2D0B2D1830F1000030F200F30190
:100A4800F30A280884313124843101304001A000A0
:100A58002008A90725082902031C332D342DFA2C58
:100A6800A901AA2D0330A0002008F00029088F3121
:100A78003F278431213E860001308700010840016C
:100A8800A1002108A8004F30F1000030F200273003
:100A9800A0002008F300280883313723843140015F
:100AA800A1002108A300231D5A2D5B2D472D62307C
:100AB800F1000030F2002730A0002008F3002808D9
:100AC8008331372384314001A1002108A400240880
:100AD800A00029087B07A1002108860087012008BB
:100AE80081001530F1000030F2000730A000200826
:100AF800F30028088431312484314D30F10000306E
:100B0800F20027304001A0002008F30028088331B4
:100B1800372384314001A1002108A600261C952D09
:100B2800962D812D2608A0000430A036890B992D1A
:100B38002008A10029087C07A20022088600870156
:100B4800210881000130A0002008A90725082902F2
:100B5800031CAF2DB02D362D08004001BB00330813
:100B680086008701403FB500413FB6003508840044
:100B7800360885001200253A031DC32DC42D3E2ECC
:100B88003308860087010130810741310318810A43
:100B9800E701E801E901EA01FF304101D200FF3035
:100BA800D3004001330886008701403FB500413F2C
:100BB800B60035088400360885001200633A031D24
:100BC800E62DE72D092E33088600870101308107BD
:100BD80041310318810A340886008701010884001E
:100BE8008501023081070008B5003508BA003A08C7
:100BF800B5003508AD003B088731B727853140017E
:100C08002E08B4002D08B300612E33088600870132
:100C1800403FB500413FB6003508840036088500DE
:100C28001200253A031D192E1A2E332E330886007A
:100C380087010130810741310318810A2530F2000C
:100C48000030F3003B08B5003508F40087317827F9
:100C5800853101304001B3000030B400612E330803
:100C6800860087010130810741310318810AB301E9
:100C7800B401612E330886008701403FB500413F2B
:100C8800B60035088400360885000008B700B801AA
:100C98003708F2003808F3003B08B9003908F400B7
:100CA8008731782785314001330886008701013074
:100CB800810741310318810A2D2E08004001A40143
:100CC800A301A201CF2E22088731E3278631003005
:100CD800F100F2002330FB007B08F3002930833158
:100CE80037238631FC007C084001A000B430200680
:100CF800031D7F2E802ECA2E2308031D842E852EC9
:100D0800CA2E0130FB007B08A40724357E3EFB0079
:100D18007B08A1001230F1000230F2002108FB002C
:100D28007B08F30029308431312486310330FB00FD
:100D38007B08F000400124088F313F2786311D3E93
:100D4800860001308700810140012108FB00033043
:100D5800FC007C08F00024088F313F2786311E3EB6
:100D68008600013087007B088100FF30FB000330DC
:100D7800FC007C08F000400124088F313F278631B1
:100D88001F3E8600013087007B0881000130FB0090
:100D98007B084001A20741015A0840012202031CB6
:100DA800D62ED72E672E240808004001AC00691CF7
:100DB800DE2EDF2EE72E2C08A7002708FA002408CD
:100DC8008F31D72786314001A61BEB2EEC2EF12E52
:100DD8002608AB002508AA00F32EAA01AB01A8013A
:100DE800A901072F2030F2000030F30040012C0841
:100DF800A7002708F40087317827863101304001A1
:100E0800A8070030A93D2908803AA7002B08803A96
:100E18002702031D112F2A082802031C142F152F3F
:100E2800F62E40016918192F1A2F222F2C08A70017
:100E38002708FA0024088F31D72786314001240873
:100E48008F315427863140012A087007A4002B08E7
:100E5800713DA500080040019C019B019801990182
:100E68009A01073096001F309200FC309300DE3064
:100E78009400FF309500FF307E01D900D030CE00BD
:100E8800FF30C3000330E400DF30B800DA01E501C9
:100E9800C401B901CF01E601BA01C501D001DB01E6
:100EA800DF30BB00FF30C600DF30D100FF30DC0090
:100EB8000330E700FF30BC00FF30C700DF30D2004E
:100EC800FF30DD000B30E8000D30A00011307D014F
:100ED800CB001330C50013307E01A3001430A200EC
:100EE80012307D01C6000800740803197C2F7D2F7D
:100EF800822F7408031D812F822F872F72088E314D
:100F0800BE268731B62F7408033E86008701160077
:100F180001040319902F912FAE2F7408033E860009
:100F28008701403FF500413FF600740A86008701BB
:100F3800403FF700413FF8007808803AF90076080A
:100F4800803A7902031DAA2F750877020318AD2F7E
:100F5800AE2FB62F740A8600870101308107413110
:100F68000318810A08004001B20067086804031DDD
:100F7800BE2FBF2FC42F6808B1006708B000CA2F62
:100F88006708FF3EB000FF30683DB1002D08AF0094
:100F98002F084201BE00BF013E304001AF002F08BC
:100FA800A4003108A6003008A50032088631D926E9
:100FB800873140012508AE002408AD000800F30081
:100FC800F00173088F316E2787313430F200F23028
:100FD800890BEC2FF20BEC2FF001F00A73088F311C
:100FE8006E2787313430F200F230890BF92FF20B7B
:040FF800F92F0800C5
:101CC8004E010F10080043019012080043010C0850
:101CD800080043011114080043019115080043014D
:101CE8001115080040019910080040011813080058
:101CF8004001981308004001191008004001991488
:101D08000800400118170800400198170800400112
:101D18001914080043010F080139080043019116FE
:101D2800111608004E010F0E890C01390800F00049
:101D3800700843018C00080071084101D500700843
:101D4800D400080071084101D9007008D8000800C3
:101D580071084101D7007008D60008004301110E30
:101D6800890C890C013908004E010F1CBC2EBD2EB0
:101D7800B82E0800F10071088E31DB268E3108007C
:101D8800640080010131890BC52E00344F01960192
:101D98009701980199019A019B01080043018F015D
:101DA80008309000910113308D0090120800F00067
:101DB8004E010F1EE02EE12EDC2E700842019A0023
:101DC8000800603051018D008F01910106309300A9
:101DD80090019201940108004301901AF42EF52E07
:101DE800FC2E8E31D2268E31430190160130FD2E05
:101DF80000300800F0014E010F1E032F042F0B2F97
:101E080042019E1E082F092F0B2FF001F00A7008BF
:101E180008004E018F1E112F122F0D2F4001EE01C9
:101E280042019D1C182F192F1B2F1D121D16190852
:101E380008008E31CA268F318E31D2268F318731F4
:101E48002F278F318E31E5268F318F318D278F31B6
:101E5800080046304001C8004808CB004508BD00CE
:101E68004408BC004B30C8004808BE0000308F3121
:101E7800AF278F310800F300F201731C442F452F60
:101E8800492F7008F1007108F2070310F00D0310D4
:101E9800F30C7308031D512F522F412F72080800AD
:101EA800F4007408F2007208F3005E2F0130F200AB
:101EB8007208F40774088600013087000108031DC2
:101EC800662F672F5A2F73087402F000F101F01B78
:101ED800F1030800F1007003031D732F742F7E2F88
:101EE8007135B43E86008701413F8A00403F0A00B1
:101EF8008F318C2F7008031D822F832F8C2F713503
:101F0800A03E86008701413F8A00403F0A008F318A
:101F18000800083042019F0090309D0024309E0048
:101F280007309B009C010030F0000030F1008E313A
:101F3800A6268F310030F0000030F1008E31AC263B
:101F48008F310030F0000030F1008E31A0268F3143
:101F58004001EE0108004001C1003D08C3003C08F3
:101F6800C200E501E601C92F4230BF003F08B300B7
:101F78003E08C0004008B40041088531B1258F31C2
:101F880040013308E5073408E63D42088400430869
:101F980085001200031DD12FD22FB82F6608BD006F
:101FA8006508BC0008004001A300A101A201EF2FB1
:101FB8002008FB00FC017B08F2007C08F3007A088B
:101FC800FD007D08F400873178278F31013040010A
:101FD800A1070030A23D21082307FB007B088600EB
:101FE800013087000108FC007C08A0002008031DC0
:101FF800FE2FFF2FDC2F08005034303430343134BA
:08200800003425346334003478
:020000040001F9
:0A000E00E83FFF3F9F3FFF3FFF3F29
:00000001FF
